:020000020000FC
:0200000016C028
:10002C003BC00FEF0DBF08E00EBF07D00FD010E0A4
:10003C0024E11CD078940000FECF0CEF0AB900E04C
:10004C000BB90FE304B900E005B9089500E0009383
:10005C0080000DE0009381000DE30093890008E01F
:10006C000093880002E000936F000895103029F08F
:10007C00113041F0123059F0089500E30BB909E04A
:10008C0005B9089500E50BB909E005B9089500E23A
:10009C000BB90CE005B908950F930FB70F932A9580
:1000AC0091F4103029F0113039F0123049F00BC0B6
:1000BC0011E025E0DBDF07C012E028E2D7DF03C048
:0E00CC0010E024E1D3DF0F910FBF0F911895C4
:00000001FF
